{
  "contractName": "SecretNote",
  "abi": [
    {
      "constant": false,
      "inputs": [
        {
          "name": "a",
          "type": "uint256[2]"
        },
        {
          "name": "a_p",
          "type": "uint256[2]"
        },
        {
          "name": "b",
          "type": "uint256[2][2]"
        },
        {
          "name": "b_p",
          "type": "uint256[2]"
        },
        {
          "name": "c",
          "type": "uint256[2]"
        },
        {
          "name": "c_p",
          "type": "uint256[2]"
        },
        {
          "name": "h",
          "type": "uint256[2]"
        },
        {
          "name": "k",
          "type": "uint256[2]"
        },
        {
          "name": "input",
          "type": "uint256[7]"
        }
      ],
      "name": "verifyTx",
      "outputs": [
        {
          "name": "r",
          "type": "bool"
        }
      ],
      "payable": false,
      "stateMutability": "nonpayable",
      "type": "function",
      "signature": "0x1cdf1357"
    },
    {
      "constant": true,
      "inputs": [
        {
          "name": "",
          "type": "uint256"
        }
      ],
      "name": "allHashedNotes",
      "outputs": [
        {
          "name": "",
          "type": "bytes32"
        }
      ],
      "payable": false,
      "stateMutability": "view",
      "type": "function",
      "signature": "0x58a5d596"
    },
    {
      "constant": true,
      "inputs": [
        {
          "name": "",
          "type": "bytes32"
        }
      ],
      "name": "notes",
      "outputs": [
        {
          "name": "",
          "type": "uint8"
        }
      ],
      "payable": false,
      "stateMutability": "view",
      "type": "function",
      "signature": "0x85de26b7"
    },
    {
      "constant": true,
      "inputs": [
        {
          "name": "",
          "type": "uint256"
        }
      ],
      "name": "allNotes",
      "outputs": [
        {
          "name": "",
          "type": "string"
        }
      ],
      "payable": false,
      "stateMutability": "view",
      "type": "function",
      "signature": "0xddabcf41"
    },
    {
      "inputs": [],
      "payable": false,
      "stateMutability": "nonpayable",
      "type": "constructor",
      "signature": "constructor"
    },
    {
      "anonymous": false,
      "inputs": [
        {
          "indexed": false,
          "name": "to",
          "type": "address"
        },
        {
          "indexed": false,
          "name": "amount",
          "type": "uint256"
        }
      ],
      "name": "Claim",
      "type": "event",
      "signature": "0x47cee97cb7acd717b3c0aa1435d004cd5b3c8c57d70dbceb4e4458bbd60e39d4"
    },
    {
      "anonymous": false,
      "inputs": [
        {
          "indexed": false,
          "name": "noteId",
          "type": "bytes32"
        },
        {
          "indexed": false,
          "name": "index",
          "type": "uint256"
        }
      ],
      "name": "NoteCreated",
      "type": "event",
      "signature": "0xc904a92388c152c0c63dfe30e3e880273673ef7d33ea18195aecb5ba50f546fc"
    },
    {
      "anonymous": false,
      "inputs": [
        {
          "indexed": false,
          "name": "s",
          "type": "string"
        }
      ],
      "name": "Verified",
      "type": "event",
      "signature": "0x3f3cfdb26fb5f9f1786ab4f1a1f9cd4c0b5e726cbdfc26e495261731aad44e39"
    },
    {
      "constant": false,
      "inputs": [
        {
          "name": "amount",
          "type": "uint256"
        }
      ],
      "name": "claimNote",
      "outputs": [],
      "payable": false,
      "stateMutability": "nonpayable",
      "type": "function",
      "signature": "0xa4654ead"
    },
    {
      "constant": false,
      "inputs": [
        {
          "name": "a",
          "type": "uint256[2]"
        },
        {
          "name": "a_p",
          "type": "uint256[2]"
        },
        {
          "name": "b",
          "type": "uint256[2][2]"
        },
        {
          "name": "b_p",
          "type": "uint256[2]"
        },
        {
          "name": "c",
          "type": "uint256[2]"
        },
        {
          "name": "c_p",
          "type": "uint256[2]"
        },
        {
          "name": "h",
          "type": "uint256[2]"
        },
        {
          "name": "k",
          "type": "uint256[2]"
        },
        {
          "name": "input",
          "type": "uint256[7]"
        },
        {
          "name": "encryptedNote1",
          "type": "string"
        },
        {
          "name": "encryptedNote2",
          "type": "string"
        }
      ],
      "name": "transferNote",
      "outputs": [],
      "payable": false,
      "stateMutability": "nonpayable",
      "type": "function",
      "signature": "0x573d7339"
    },
    {
      "constant": true,
      "inputs": [],
      "name": "getNotesLength",
      "outputs": [
        {
          "name": "",
          "type": "uint256"
        }
      ],
      "payable": false,
      "stateMutability": "view",
      "type": "function",
      "signature": "0xeb3d72d1"
    },
    {
      "constant": false,
      "inputs": [
        {
          "name": "owner",
          "type": "address"
        },
        {
          "name": "amount",
          "type": "uint256"
        },
        {
          "name": "encryptedNote",
          "type": "string"
        }
      ],
      "name": "createNote",
      "outputs": [],
      "payable": false,
      "stateMutability": "nonpayable",
      "type": "function",
      "signature": "0xe60dd4a3"
    }
  ],
  "bytecode": "0x6080604052734029d1ff3a5485cb12a0ed891ddde81de8a6f8d46000806101000a81548173ffffffffffffffffffffffffffffffffffffffff021916908373ffffffffffffffffffffffffffffffffffffffff16021790555034801561006457600080fd5b50612e5d806100746000396000f3fe60806040526004361061008e576000357c0100000000000000000000000000000000000000000000000000000000900463ffffffff1680631cdf135714610093578063573d73391461035e57806358a5d5961461073f57806385de26b71461078e578063a4654ead146107eb578063ddabcf4114610826578063e60dd4a3146108da578063eb3d72d1146109cc575b600080fd5b34801561009f57600080fd5b5061034460048036036103208110156100b757600080fd5b8101908080604001906002806020026040519081016040528092919082600260200280828437600081840152601f19601f820116905080830192505050505050919291929080604001906002806020026040519081016040528092919082600260200280828437600081840152601f19601f82011690508083019250505050505091929192908060800190600280602002604051908101604052809291906000905b828210156101ad578382604002016002806020026040519081016040528092919082600260200280828437600081840152601f19601f82011690508083019250505050505081526020019060010190610159565b50505050919291929080604001906002806020026040519081016040528092919082600260200280828437600081840152601f19601f820116905080830192505050505050919291929080604001906002806020026040519081016040528092919082600260200280828437600081840152601f19601f820116905080830192505050505050919291929080604001906002806020026040519081016040528092919082600260200280828437600081840152601f19601f820116905080830192505050505050919291929080604001906002806020026040519081016040528092919082600260200280828437600081840152601f19601f820116905080830192505050505050919291929080604001906002806020026040519081016040528092919082600260200280828437600081840152601f19601f82011690508083019250505050505091929192908060e001906007806020026040519081016040528092919082600760200280828437600081840152601f19601f82011690508083019250505050505091929192905050506109f7565b604051808215151515815260200191505060405180910390f35b34801561036a57600080fd5b5061073d600480360361036081101561038257600080fd5b8101908080604001906002806020026040519081016040528092919082600260200280828437600081840152601f19601f820116905080830192505050505050919291929080604001906002806020026040519081016040528092919082600260200280828437600081840152601f19601f82011690508083019250505050505091929192908060800190600280602002604051908101604052809291906000905b82821015610478578382604002016002806020026040519081016040528092919082600260200280828437600081840152601f19601f82011690508083019250505050505081526020019060010190610424565b50505050919291929080604001906002806020026040519081016040528092919082600260200280828437600081840152601f19601f820116905080830192505050505050919291929080604001906002806020026040519081016040528092919082600260200280828437600081840152601f19601f820116905080830192505050505050919291929080604001906002806020026040519081016040528092919082600260200280828437600081840152601f19601f820116905080830192505050505050919291929080604001906002806020026040519081016040528092919082600260200280828437600081840152601f19601f820116905080830192505050505050919291929080604001906002806020026040519081016040528092919082600260200280828437600081840152601f19601f82011690508083019250505050505091929192908060e001906007806020026040519081016040528092919082600760200280828437600081840152601f19601f82011690508083019250505050505091929192908035906020019064010000000081111561062057600080fd5b82018360208201111561063257600080fd5b8035906020019184600183028401116401000000008311171561065457600080fd5b91908080601f016020809104026020016040519081016040528093929190818152602001838380828437600081840152601f19601f820116905080830192505050505050509192919290803590602001906401000000008111156106b757600080fd5b8201836020820111156106c957600080fd5b803590602001918460018302840111640100000000831117156106eb57600080fd5b91908080601f016020809104026020016040519081016040528093929190818152602001838380828437600081840152601f19601f820116905080830192505050505050509192919290505050610df3565b005b34801561074b57600080fd5b506107786004803603602081101561076257600080fd5b810190808035906020019092919050505061101b565b6040518082815260200191505060405180910390f35b34801561079a57600080fd5b506107c7600480360360208110156107b157600080fd5b810190808035906020019092919050505061103e565b604051808260028111156107d757fe5b60ff16815260200191505060405180910390f35b3480156107f757600080fd5b506108246004803603602081101561080e57600080fd5b810190808035906020019092919050505061105e565b005b34801561083257600080fd5b5061085f6004803603602081101561084957600080fd5b8101908080359060200190929190505050611412565b6040518080602001828103825283818151815260200191508051906020019080838360005b8381101561089f578082015181840152602081019050610884565b50505050905090810190601f1680156108cc5780820380516001836020036101000a031916815260200191505b509250505060405180910390f35b3480156108e657600080fd5b506109ca600480360360608110156108fd57600080fd5b81019080803573ffffffffffffffffffffffffffffffffffffffff169060200190929190803590602001909291908035906020019064010000000081111561094457600080fd5b82018360208201111561095657600080fd5b8035906020019184600183028401116401000000008311171561097857600080fd5b91908080601f016020809104026020016040519081016040528093929190818152602001838380828437600081840152601f19601f8201169050808301925050505050505091929192905050506114cd565b005b3480156109d857600080fd5b506109e16115c4565b6040518082815260200191505060405180910390f35b6000610a01612b99565b60408051908101604052808c6000600281101515610a1b57fe5b602002015181526020018c6001600281101515610a3457fe5b6020020151815250816000018190525060408051908101604052808b6000600281101515610a5e57fe5b602002015181526020018b6001600281101515610a7757fe5b60200201518152508160200181905250604080519081016040528060408051908101604052808c6000600281101515610aac57fe5b60200201516000600281101515610abf57fe5b602002015181526020018c6000600281101515610ad857fe5b60200201516001600281101515610aeb57fe5b6020020151815250815260200160408051908101604052808c6001600281101515610b1257fe5b60200201516000600281101515610b2557fe5b602002015181526020018c6001600281101515610b3e57fe5b60200201516001600281101515610b5157fe5b602002015181525081525081604001819052506040805190810160405280896000600281101515610b7e57fe5b60200201518152602001896001600281101515610b9757fe5b602002015181525081606001819052506040805190810160405280886000600281101515610bc157fe5b60200201518152602001886001600281101515610bda57fe5b602002015181525081608001819052506040805190810160405280876000600281101515610c0457fe5b60200201518152602001876001600281101515610c1d57fe5b60200201518152508160a001819052506040805190810160405280866000600281101515610c4757fe5b60200201518152602001866001600281101515610c6057fe5b60200201518152508160e001819052506040805190810160405280856000600281101515610c8a57fe5b60200201518152602001856001600281101515610ca357fe5b60200201518152508160c0018190525060606007604051908082528060200260200182016040528015610ce55781602001602082028038833980820191505090505b50905060008090505b6007811015610d33578481600781101515610d0557fe5b60200201518282815181101515610d1857fe5b90602001906020020181815250508080600101915050610cee565b506000610d4082846115d1565b1415610ddf577f3f3cfdb26fb5f9f1786ab4f1a1f9cd4c0b5e726cbdfc26e495261731aad44e396040518080602001828103825260228152602001807f5472616e73616374696f6e207375636365737366756c6c79207665726966696581526020017f642e00000000000000000000000000000000000000000000000000000000000081525060400191505060405180910390a1600192505050610de6565b6000925050505b9998505050505050505050565b610e048b8b8b8b8b8b8b8b8b6109f7565b1515610e78576040517f08c379a00000000000000000000000000000000000000000000000000000000081526004018080602001828103825260108152602001807f496e76616c6964207a6b2070726f6f660000000000000000000000000000000081525060200191505060405180910390fd5b6000610eaa846000600781101515610e8c57fe5b6020020151856001600781101515610ea057fe5b6020020151611811565b905060016002811115610eb957fe5b6001600083815260200190815260200160002060009054906101000a900460ff166002811115610ee557fe5b141515610f5a576040517f08c379a00000000000000000000000000000000000000000000000000000000081526004018080602001828103825260198152602001807f7370656e64696e674e6f746520646f65736e742065786973740000000000000081525060200191505060405180910390fd5b60026001600083815260200190815260200160002060006101000a81548160ff02191690836002811115610f8a57fe5b02179055506000610fc1856002600781101515610fa357fe5b6020020151866003600781101515610fb757fe5b6020020151611811565b9050610fcd81856119a2565b6000610fff866004600781101515610fe157fe5b6020020151876005600781101515610ff557fe5b6020020151611811565b905061100b81856119a2565b5050505050505050505050505050565b60038181548110151561102a57fe5b906000526020600020016000915090505481565b60016020528060005260406000206000915054906101000a900460ff1681565b600060023373ffffffffffffffffffffffffffffffffffffffff166001028360010260405160200180838152602001828152602001925050506040516020818303038152906040526040518082805190602001908083835b6020831015156110db57805182526020820191506020810190506020830392506110b6565b6001836020036101000a038019825116818451168082178552505050505050905001915050602060405180830381855afa15801561111d573d6000803e3d6000fd5b5050506040513d602081101561113257600080fd5b810190808051906020019092919050505090506001600281111561115257fe5b6001600083815260200190815260200160002060009054906101000a900460ff16600281111561117e57fe5b1415156111f3576040517f08c379a00000000000000000000000000000000000000000000000000000000081526004018080602001828103825260118152602001807f6e6f746520646f65736e7420657869737400000000000000000000000000000081525060200191505060405180910390fd5b60026001600083815260200190815260200160002060006101000a81548160ff0219169083600281111561122357fe5b02179055506000809054906101000a900473ffffffffffffffffffffffffffffffffffffffff1673ffffffffffffffffffffffffffffffffffffffff1663a9059cbb3361271085026040518363ffffffff167c0100000000000000000000000000000000000000000000000000000000028152600401808373ffffffffffffffffffffffffffffffffffffffff1673ffffffffffffffffffffffffffffffffffffffff16815260200182815260200192505050602060405180830381600087803b1580156112f057600080fd5b505af1158015611304573d6000803e3d6000fd5b505050506040513d602081101561131a57600080fd5b8101908080519060200190929190505050151561139f576040517f08c379a00000000000000000000000000000000000000000000000000000000081526004018080602001828103825260188152602001807f686d79546f6b656e207472616e73666572206661696c6564000000000000000081525060200191505060405180910390fd5b7f47cee97cb7acd717b3c0aa1435d004cd5b3c8c57d70dbceb4e4458bbd60e39d4336127108402604051808373ffffffffffffffffffffffffffffffffffffffff1673ffffffffffffffffffffffffffffffffffffffff1681526020018281526020019250505060405180910390a15050565b60028181548110151561142157fe5b906000526020600020016000915090508054600181600116156101000203166002900480601f0160208091040260200160405190810160405280929190818152602001828054600181600116156101000203166002900480156114c55780601f1061149a576101008083540402835291602001916114c5565b820191906000526020600020905b8154815290600101906020018083116114a857829003601f168201915b505050505081565b600060028473ffffffffffffffffffffffffffffffffffffffff166001028460010260405160200180838152602001828152602001925050506040516020818303038152906040526040518082805190602001908083835b60208310151561154a5780518252602082019150602081019050602083039250611525565b6001836020036101000a038019825116818451168082178552505050505050905001915050602060405180830381855afa15801561158c573d6000803e3d6000fd5b5050506040513d60208110156115a157600080fd5b810190808051906020019092919050505090506115be81836119a2565b50505050565b6000600280549050905090565b60006115db612c0f565b6115e3611a8c565b90508060e001515160018551011415156115fc57600080fd5b611604612c7f565b6040805190810160405280600081526020016000815250905060008090505b8551811015611683576116748261166f8560e001516001850181518110151561164857fe5b90602001906020020151898581518110151561166057fe5b90602001906020020151612315565b6123b1565b91508080600101915050611623565b506116aa818360e00151600081518110151561169b57fe5b906020019060200201516123b1565b90506116d3846000015183600001516116c6876020015161246e565b6116ce61250a565b6125d4565b15156116e45760019250505061180b565b61170b826020015185604001516116fe876060015161246e565b61170661250a565b6125d4565b151561171c5760029250505061180b565b611743846080015183604001516117368760a0015161246e565b61173e61250a565b6125d4565b15156117545760039250505061180b565b6117a08460c00151836060015161178461177f8561177a8a600001518b608001516123b1565b6123b1565b61246e565b8560a00151611796876080015161246e565b89604001516126e0565b15156117b15760049250505061180b565b6117f36117c28286600001516123b1565b85604001516117d48760e0015161246e565b8560c001516117e6896080015161246e565b6117ee61250a565b6126e0565b15156118045760059250505061180b565b6000925050505b92915050565b60008083700100000000000000000000000000000000029050600083700100000000000000000000000000000000026fffffffffffffffffffffffffffffffff19169050606060206040519080825280601f01601f19166020018201604052801561188b5781602001600182028038833980820191505090505b50905060008090505b601081101561198b5783816010811015156118ab57fe5b1a7f01000000000000000000000000000000000000000000000000000000000000000282828151811015156118dc57fe5b9060200101907effffffffffffffffffffffffffffffffffffffffffffffffffffffffffffff1916908160001a905350828160208110151561191a57fe5b1a7f010000000000000000000000000000000000000000000000000000000000000002828260100181518110151561194e57fe5b9060200101907effffffffffffffffffffffffffffffffffffffffffffffffffffffffffffff1916908160001a9053508080600101915050611894565b50611997816000612828565b935050505092915050565b600180600084815260200190815260200160002060006101000a81548160ff021916908360028111156119d157fe5b02179055506002819080600181540180825580915050906001820390600052602060002001600090919290919091509080519060200190611a13929190612c99565b505060038290806001815401808255809150509060018203906000526020600020016000909192909190915055507fc904a92388c152c0c63dfe30e3e880273673ef7d33ea18195aecb5ba50f546fc82600160028054905003604051808381526020018281526020019250505060405180910390a15050565b611a94612c0f565b604080519081016040528060408051908101604052807f1fa460158058a11e51eb519757eda4bfd2a64f3c6def14d98ad2a2f91580924d81526020017f13bf8a6672b0df5bceb7983a2553d8eea808e7d6d6e353158a3baa526fa3be14815250815260200160408051908101604052807f16ef4c965abd0cf81f7727af6e59139d55e4a53e60d0c40d3a202fc6f6094dbe81526020017f10610e03bdb89a50c199e96ea93fc0c8ee2f0019cc091490ef714edc99f76327815250815250816000018190525060408051908101604052807f0ad90eb61c53c9684df3be2ac19232b2755b495866981a8e9eee61391ff64eea81526020017f0971755721dc357a06d58a2e8ec9fbd16c6d2d81dec0bd33fbf7d9ea43104a998152508160200181905250604080519081016040528060408051908101604052807f2e6f46454a93d952ac855abef3d049095f4b4e6624e62fed6c65d93c2c13de7b81526020017f27f952b9b0af4b9578ba3198e3529c36d8dcbe94d6a15fcb5fe8040c37c0cc97815250815260200160408051908101604052807f2350d186682bead30e670007362a4ba29aa26987526789ee1f3496a9c229ea1481526020017f0806d9a379bef2d044b54273043180ef78325c6447f273d629c4ac71de3d23018152508152508160400181905250604080519081016040528060408051908101604052807f29c8b58e9da3b0bd5763717624911e0ec322533f5177797974ce5e80bf0b7e1b81526020017f1552ad13fa0adea4611b372f32ffc40b695881ae6b9d689050a4452ee49e03b8815250815260200160408051908101604052807f0db654abe26b7d79da650700c7fbebd0f9b2c2ace4e43fa23d30d5f72b2354a681526020017f018d11ce787c605cb9d59154f9d3a66a176c812bd6ae643597ca3846c116dfa5815250815250816060018190525060408051908101604052807f143a0c74736df3842a3bd3ee8fb3e598d4e5bd7d7d1def8e72d30c9c7a4f788481526020017e573c0b3bcb83fbf5775d6e5a2026280abbba1c4eaf0ed9eba4a07ca583422f8152508160800181905250604080519081016040528060408051908101604052807f08583a8932244d88ce765a56863501535c866faf91616c653e2659d20c848ddf81526020017f2473d27ded2e1f9afe6b4519b94ec3ccc0762375e35ab465994e600e576aa2da815250815260200160408051908101604052807f1a730d53bc096e9f51c33d7392dced6a68a311af74fa21abcf2ed1f820046b0c81526020017f06ef0c7ee8fef78503378eb3db712ed66904c2dfc6bb3bf2e70aa71a99b079eb8152508152508160a00181905250604080519081016040528060408051908101604052807f1e51a552803475d67805134859aeb739d04cf9da5c1eaa9fa3da85c095cc66cf81526020017f09daca68318f5e32d3b0bfaa354cfb1bc0266657077ffec6eaa68bd76d5974d1815250815260200160408051908101604052807f0f546c57159e0a3b29bf6dd6fecde978c29e130f7bc57ef604a3c6d0af8bdb7c81526020017f0b5ecc2e840ac1bf12ecdc8449d94bf8bbdbc932b03239939ef2edddfef837748152508152508160c001819052506008604051908082528060200260200182016040528015611f6157816020015b611f4e612d19565b815260200190600190039081611f465790505b508160e0018190525060408051908101604052807f2a00e028b66c9e6f4afb2132388333e4930350527fb415e8cb9c9bf435dfada781526020017f0ebccac4c098ee22922ad3850672fc3c43f4629553bc1e4d7033e66888aed5618152508160e001516000815181101515611fd257fe5b9060200190602002018190525060408051908101604052807f22a2ea23d91715e1077cdc9a1331bcc4c85692c537548f6989db4b20105d497981526020017f054751c2d036e1ed6419f3a06f67b9ae8ea7011df767850d98a3316fa4f3d3ea8152508160e00151600181518110151561204757fe5b9060200190602002018190525060408051908101604052807f0d3240bcbcc0289131539d6fd6299ba98d57e65104601484ca6412530bcbb68e81526020017f0b495ab6bf8cb1e0c9b8d70a9ad737f6b37497683118357d34c846c3a49565708152508160e0015160028151811015156120bc57fe5b9060200190602002018190525060408051908101604052807f26cc72e77ef7364a2a20692388be77269a72c739a6380cbddbe61140904d538281526020017f071abe824fc9abaa08443b3a866018b6d0bcbc1c64d1b3411b00b758388fbced8152508160e00151600381518110151561213157fe5b9060200190602002018190525060408051908101604052807f05b2e025b75e2c7da108d27e373e9dadd24896f4fa42a3fbe4f35d9c3894785681526020017f2f52cfb58400ab2e4d2bb9d0eb6c9a2bfab9f95acea12f1f3695c383377c5b128152508160e0015160048151811015156121a657fe5b9060200190602002018190525060408051908101604052807f1f0f27beb66fb27d9f29f2ab2fd70122fa47f8a9170ddc81eb7b9d0a9f4e6bd081526020017f28a4faeb0c31c33664279bea5361d36ba747970280fe6f75e3a494e4664e68ba8152508160e00151600581518110151561221b57fe5b9060200190602002018190525060408051908101604052807f19e7386de88fd3fc9691db08aedf9dfe2a39caf9de6ff183b377eea6e8f6c36d81526020017f093587978eb7a94b9ef5667decf0316c4c60bc3d862b83119cf422a85a478cd28152508160e00151600681518110151561229057fe5b9060200190602002018190525060408051908101604052807f2fa63075b72251605efa46f722ace90a8eced7f6b74d128293d2f241245b0a9a81526020017f01059473d5269b37713f616b694a0048f7d41e9d717358a257c3ee99931b04978152508160e00151600781518110151561230557fe5b9060200190602002018190525090565b61231d612c7f565b612325612d33565b836000015181600060038110151561233957fe5b602002018181525050836020015181600160038110151561235657fe5b6020020181815250508281600260038110151561236f57fe5b6020020181815250506000606083608084600060076107d05a03f19050806000811461239a5761239c565bfe5b508015156123a957600080fd5b505092915050565b6123b9612c7f565b6123c1612d56565b83600001518160006004811015156123d557fe5b60200201818152505083602001518160016004811015156123f257fe5b602002018181525050826000015181600260048110151561240f57fe5b602002018181525050826020015181600360048110151561242c57fe5b602002018181525050600060608360c084600060066107d05a03f19050806000811461245757612459565bfe5b5080151561246657600080fd5b505092915050565b612476612c7f565b60007f30644e72e131a029b85045b68181585d97816a916871ca8d3c208c16d87cfd479050600083600001511480156124b3575060008360200151145b156124d7576040805190810160405280600081526020016000815250915050612505565b6040805190810160405280846000015181526020018285602001518115156124fb57fe5b0683038152509150505b919050565b612512612d79565b604080519081016040528060408051908101604052807f198e9393920d483a7260bfb731fb5d25f1aa493335a9e71297e485b7aef312c281526020017f1800deef121f1e76426a00665e5c4479674322d4f75edadd46debd5cd992f6ed815250815260200160408051908101604052807f090689d0585ff075ec9e99ad690c3395bc4b313370b38ef355acdadcd122975b81526020017f12c85ea5db8c6deb4aab71808dcb408fe3d1e7690c43d37b4ce6cc0166fa7daa815250815250905090565b60006060600260405190808252806020026020018201604052801561261357816020015b612600612d19565b8152602001906001900390816125f85790505b5090506060600260405190808252806020026020018201604052801561265357816020015b612640612da0565b8152602001906001900390816126385790505b5090508682600081518110151561266657fe5b906020019060200201819052508482600181518110151561268357fe5b90602001906020020181905250858160008151811015156126a057fe5b90602001906020020181905250838160018151811015156126bd57fe5b906020019060200201819052506126d48282612906565b92505050949350505050565b60006060600360405190808252806020026020018201604052801561271f57816020015b61270c612d19565b8152602001906001900390816127045790505b5090506060600360405190808252806020026020018201604052801561275f57816020015b61274c612da0565b8152602001906001900390816127445790505b5090508882600081518110151561277257fe5b906020019060200201819052508682600181518110151561278f57fe5b90602001906020020181905250848260028151811015156127ac57fe5b90602001906020020181905250878160008151811015156127c957fe5b90602001906020020181905250858160018151811015156127e657fe5b906020019060200201819052508381600281518110151561280357fe5b9060200190602002018190525061281a8282612906565b925050509695505050505050565b60008060008090505b60208110156128fb576008810260ff7f0100000000000000000000000000000000000000000000000000000000000000028683870181518110151561287257fe5b9060200101517f010000000000000000000000000000000000000000000000000000000000000090047f010000000000000000000000000000000000000000000000000000000000000002167effffffffffffffffffffffffffffffffffffffffffffffffffffffffffffff1916908060020a8204915050821791508080600101915050612831565b508091505092915050565b60008151835114151561291857600080fd5b60008351905060006006820290506060816040519080825280602002602001820160405280156129575781602001602082028038833980820191505090505b50905060008090505b83811015612b3557868181518110151561297657fe5b9060200190602002015160000151826000600684020181518110151561299857fe5b906020019060200201818152505086818151811015156129b457fe5b906020019060200201516020015182600160068402018151811015156129d657fe5b906020019060200201818152505085818151811015156129f257fe5b90602001906020020151600001516000600281101515612a0e57fe5b60200201518260026006840201815181101515612a2757fe5b90602001906020020181815250508581815181101515612a4357fe5b90602001906020020151600001516001600281101515612a5f57fe5b60200201518260036006840201815181101515612a7857fe5b90602001906020020181815250508581815181101515612a9457fe5b90602001906020020151602001516000600281101515612ab057fe5b60200201518260046006840201815181101515612ac957fe5b90602001906020020181815250508581815181101515612ae557fe5b90602001906020020151602001516001600281101515612b0157fe5b60200201518260056006840201815181101515612b1a57fe5b90602001906020020181815250508080600101915050612960565b50612b3e612dc7565b60006020826020860260208601600060086107d05a03f190508060008114612b6557612b67565bfe5b50801515612b7457600080fd5b6000826000600181101515612b8557fe5b602002015114159550505050505092915050565b61024060405190810160405280612bae612d19565b8152602001612bbb612d19565b8152602001612bc8612da0565b8152602001612bd5612d19565b8152602001612be2612d19565b8152602001612bef612d19565b8152602001612bfc612d19565b8152602001612c09612d19565b81525090565b61032060405190810160405280612c24612da0565b8152602001612c31612d19565b8152602001612c3e612da0565b8152602001612c4b612da0565b8152602001612c58612d19565b8152602001612c65612da0565b8152602001612c72612da0565b8152602001606081525090565b604080519081016040528060008152602001600081525090565b828054600181600116156101000203166002900490600052602060002090601f016020900481019282601f10612cda57805160ff1916838001178555612d08565b82800160010185558215612d08579182015b82811115612d07578251825591602001919060010190612cec565b5b509050612d159190612dea565b5090565b604080519081016040528060008152602001600081525090565b606060405190810160405280600390602082028038833980820191505090505090565b608060405190810160405280600490602082028038833980820191505090505090565b608060405190810160405280612d8d612e0f565b8152602001612d9a612e0f565b81525090565b608060405190810160405280612db4612e0f565b8152602001612dc1612e0f565b81525090565b602060405190810160405280600190602082028038833980820191505090505090565b612e0c91905b80821115612e08576000816000905550600101612df0565b5090565b90565b604080519081016040528060029060208202803883398082019150509050509056fea165627a7a723058208879787a31986d281952fa3f75962f84bfe163abca297b01afef26c9624710a80029",
  "source": "pragma solidity >=0.4.25 <0.6.0;\n\nimport \"./ERC20Interface.sol\";\nimport \"./verifier.sol\";\n\ncontract SecretNote is Verifier {\n\n  ERC20Interface internal HMY_TOKEN_ADDRESS = ERC20Interface(0x4029D1FF3a5485CB12a0Ed891DDde81De8A6F8D4);\n\n  constructor() public {}\n\n  enum State {Invalid, Created, Spent}\n  mapping(bytes32 => State) public notes; // mapping of hash of the note to state\n  string[] public allNotes;\n  bytes32[] public allHashedNotes;\n\n  function createNote(address owner, uint amount, string memory encryptedNote) public {\n    bytes32 note = sha256(abi.encodePacked(bytes32(uint256(owner)), bytes32(amount)));\n    createNote(note, encryptedNote);\n  }\n\n  function claimNote(uint amount) public {\n    bytes32 note = sha256(abi.encodePacked(bytes32(uint256(msg.sender)), bytes32(amount)));\n    require(\n      notes[note] == State.Created,\n      'note doesnt exist'\n    );\n    notes[note] = State.Spent;\n    require(\n      HMY_TOKEN_ADDRESS.transfer(msg.sender, amount * (10 ** 4)),\n      'hmyToken transfer failed'\n    );\n    emit Claim(msg.sender, amount * (10 ** 4));\n  }\n  event Claim(address to, uint amount);\n\n  function transferNote(\n    uint[2] memory a,\n    uint[2] memory a_p,\n    uint[2][2] memory b,\n    uint[2] memory b_p,\n    uint[2] memory c,\n    uint[2] memory c_p,\n    uint[2] memory h,\n    uint[2] memory k,\n    uint[7] memory input,\n    string memory encryptedNote1,\n    string memory encryptedNote2\n  ) public {\n    require(\n      verifyTx(a, a_p, b, b_p, c, c_p, h, k, input),\n      'Invalid zk proof'\n    );\n\n    bytes32 spendingNote = calcNoteHash(input[0], input[1]);\n    require(\n      notes[spendingNote] == State.Created,\n      'spendingNote doesnt exist'\n    );\n\n    notes[spendingNote] = State.Spent;\n    bytes32 newNote1 = calcNoteHash(input[2], input[3]);\n    createNote(newNote1, encryptedNote1);\n    bytes32 newNote2 = calcNoteHash(input[4], input[5]);\n    createNote(newNote2, encryptedNote2);\n  }\n\n  function getNotesLength() public view returns(uint) {\n    return allNotes.length;\n  }\n\n  event NoteCreated(bytes32 noteId, uint index);\n  function createNote(bytes32 note, string memory encryptedNote) internal {\n    notes[note] = State.Created;\n    allNotes.push(encryptedNote);\n    allHashedNotes.push(note);\n    emit NoteCreated(note, allNotes.length - 1);\n  }\n\n  function calcNoteHash(uint _a, uint _b) internal pure returns(bytes32 note) {\n    bytes16 a = bytes16(uint128(_a));\n    bytes32 b = bytes16(uint128(_b));\n    bytes memory _note = new bytes(32);\n    for (uint i = 0; i < 16; i++) {\n      _note[i] = a[i];\n      _note[16 + i] = b[i];\n    }\n    note = bytesToBytes32(_note, 0);\n  }\n\n  function bytesToBytes32(bytes memory b, uint offset) internal pure returns (bytes32) {\n    bytes32 out;\n    for (uint i = 0; i < 32; i++) {\n      out |= bytes32(b[offset + i] & 0xFF) >> (i * 8);\n    }\n    return out;\n  }\n}\n",
  "sourcePath": "/Users/chao/harmony/zk-dai/ethereum/contracts/SecretNote.sol",
  "compiler": {
    "name": "solc",
    "version": "0.5.0+commit.1d4f565a.Emscripten.clang"
  },
  "schemaVersion": "3.0.6",
  "updatedAt": "2019-05-03T18:43:58.655Z",
  "devdoc": {
    "methods": {}
  },
  "userdoc": {
    "methods": {}
  }
}