{
  "contractName": "SecretNote",
  "abi": [
    {
      "constant": false,
      "inputs": [
        {
          "name": "a",
          "type": "uint256[2]"
        },
        {
          "name": "a_p",
          "type": "uint256[2]"
        },
        {
          "name": "b",
          "type": "uint256[2][2]"
        },
        {
          "name": "b_p",
          "type": "uint256[2]"
        },
        {
          "name": "c",
          "type": "uint256[2]"
        },
        {
          "name": "c_p",
          "type": "uint256[2]"
        },
        {
          "name": "h",
          "type": "uint256[2]"
        },
        {
          "name": "k",
          "type": "uint256[2]"
        },
        {
          "name": "input",
          "type": "uint256[7]"
        }
      ],
      "name": "verifyTx",
      "outputs": [
        {
          "name": "r",
          "type": "bool"
        }
      ],
      "payable": false,
      "stateMutability": "nonpayable",
      "type": "function",
      "signature": "0x1cdf1357"
    },
    {
      "constant": true,
      "inputs": [
        {
          "name": "",
          "type": "uint256"
        }
      ],
      "name": "allHashedNotes",
      "outputs": [
        {
          "name": "",
          "type": "bytes32"
        }
      ],
      "payable": false,
      "stateMutability": "view",
      "type": "function",
      "signature": "0x58a5d596"
    },
    {
      "constant": true,
      "inputs": [
        {
          "name": "",
          "type": "bytes32"
        }
      ],
      "name": "notes",
      "outputs": [
        {
          "name": "",
          "type": "uint8"
        }
      ],
      "payable": false,
      "stateMutability": "view",
      "type": "function",
      "signature": "0x85de26b7"
    },
    {
      "constant": true,
      "inputs": [
        {
          "name": "",
          "type": "uint256"
        }
      ],
      "name": "allNotes",
      "outputs": [
        {
          "name": "",
          "type": "string"
        }
      ],
      "payable": false,
      "stateMutability": "view",
      "type": "function",
      "signature": "0xddabcf41"
    },
    {
      "inputs": [],
      "payable": false,
      "stateMutability": "nonpayable",
      "type": "constructor",
      "signature": "constructor"
    },
    {
      "anonymous": false,
      "inputs": [
        {
          "indexed": false,
          "name": "to",
          "type": "address"
        },
        {
          "indexed": false,
          "name": "amount",
          "type": "uint256"
        }
      ],
      "name": "Claim",
      "type": "event",
      "signature": "0x47cee97cb7acd717b3c0aa1435d004cd5b3c8c57d70dbceb4e4458bbd60e39d4"
    },
    {
      "anonymous": false,
      "inputs": [
        {
          "indexed": false,
          "name": "noteId",
          "type": "bytes32"
        },
        {
          "indexed": false,
          "name": "index",
          "type": "uint256"
        }
      ],
      "name": "NoteCreated",
      "type": "event",
      "signature": "0xc904a92388c152c0c63dfe30e3e880273673ef7d33ea18195aecb5ba50f546fc"
    },
    {
      "anonymous": false,
      "inputs": [
        {
          "indexed": false,
          "name": "s",
          "type": "string"
        }
      ],
      "name": "Verified",
      "type": "event",
      "signature": "0x3f3cfdb26fb5f9f1786ab4f1a1f9cd4c0b5e726cbdfc26e495261731aad44e39"
    },
    {
      "constant": false,
      "inputs": [
        {
          "name": "amount",
          "type": "uint256"
        }
      ],
      "name": "claimNote",
      "outputs": [],
      "payable": false,
      "stateMutability": "nonpayable",
      "type": "function",
      "signature": "0xa4654ead"
    },
    {
      "constant": false,
      "inputs": [
        {
          "name": "a",
          "type": "uint256[2]"
        },
        {
          "name": "a_p",
          "type": "uint256[2]"
        },
        {
          "name": "b",
          "type": "uint256[2][2]"
        },
        {
          "name": "b_p",
          "type": "uint256[2]"
        },
        {
          "name": "c",
          "type": "uint256[2]"
        },
        {
          "name": "c_p",
          "type": "uint256[2]"
        },
        {
          "name": "h",
          "type": "uint256[2]"
        },
        {
          "name": "k",
          "type": "uint256[2]"
        },
        {
          "name": "input",
          "type": "uint256[7]"
        },
        {
          "name": "encryptedNote1",
          "type": "string"
        },
        {
          "name": "encryptedNote2",
          "type": "string"
        }
      ],
      "name": "transferNote",
      "outputs": [],
      "payable": false,
      "stateMutability": "nonpayable",
      "type": "function",
      "signature": "0x573d7339"
    },
    {
      "constant": true,
      "inputs": [],
      "name": "getNotesLength",
      "outputs": [
        {
          "name": "",
          "type": "uint256"
        }
      ],
      "payable": false,
      "stateMutability": "view",
      "type": "function",
      "signature": "0xeb3d72d1"
    },
    {
      "constant": false,
      "inputs": [
        {
          "name": "owner",
          "type": "address"
        },
        {
          "name": "amount",
          "type": "uint256"
        },
        {
          "name": "encryptedNote",
          "type": "string"
        }
      ],
      "name": "createNote",
      "outputs": [],
      "payable": false,
      "stateMutability": "nonpayable",
      "type": "function",
      "signature": "0xe60dd4a3"
    }
  ],
  "bytecode": "0x6080604052734029d1ff3a5485cb12a0ed891ddde81de8a6f8d46000806101000a81548173ffffffffffffffffffffffffffffffffffffffff021916908373ffffffffffffffffffffffffffffffffffffffff16021790555034801561006457600080fd5b50612b30806100746000396000f30060806040526004361061008e576000357c0100000000000000000000000000000000000000000000000000000000900463ffffffff1680631cdf135714610093578063573d7339146102ad57806358a5d5961461053b57806385de26b714610584578063a4654ead146105d7578063ddabcf4114610604578063e60dd4a3146106aa578063eb3d72d11461073d575b600080fd5b34801561009f57600080fd5b50610293600480360381019080806040019060028060200260405190810160405280929190826002602002808284378201915050505050919291929080604001906002806020026040519081016040528092919082600260200280828437820191505050505091929192908060800190600280602002604051908101604052809291906000905b82821015610168578382604002016002806020026040519081016040528092919082600260200280828437820191505050505081526020019060010190610126565b505050509192919290806040019060028060200260405190810160405280929190826002602002808284378201915050505050919291929080604001906002806020026040519081016040528092919082600260200280828437820191505050505091929192908060400190600280602002604051908101604052809291908260026020028082843782019150505050509192919290806040019060028060200260405190810160405280929190826002602002808284378201915050505050919291929080604001906002806020026040519081016040528092919082600260200280828437820191505050505091929192908060e00190600780602002604051908101604052809291908260076020028082843782019150505050509192919290505050610768565b604051808215151515815260200191505060405180910390f35b3480156102b957600080fd5b50610539600480360381019080806040019060028060200260405190810160405280929190826002602002808284378201915050505050919291929080604001906002806020026040519081016040528092919082600260200280828437820191505050505091929192908060800190600280602002604051908101604052809291906000905b82821015610382578382604002016002806020026040519081016040528092919082600260200280828437820191505050505081526020019060010190610340565b505050509192919290806040019060028060200260405190810160405280929190826002602002808284378201915050505050919291929080604001906002806020026040519081016040528092919082600260200280828437820191505050505091929192908060400190600280602002604051908101604052809291908260026020028082843782019150505050509192919290806040019060028060200260405190810160405280929190826002602002808284378201915050505050919291929080604001906002806020026040519081016040528092919082600260200280828437820191505050505091929192908060e00190600780602002604051908101604052809291908260076020028082843782019150505050509192919290803590602001908201803590602001908080601f0160208091040260200160405190810160405280939291908181526020018383808284378201915050505050509192919290803590602001908201803590602001908080601f0160208091040260200160405190810160405280939291908181526020018383808284378201915050505050509192919290505050610b63565b005b34801561054757600080fd5b5061056660048036038101908080359060200190929190505050610d9a565b60405180826000191660001916815260200191505060405180910390f35b34801561059057600080fd5b506105b36004803603810190808035600019169060200190929190505050610dbd565b604051808260028111156105c357fe5b60ff16815260200191505060405180910390f35b3480156105e357600080fd5b5061060260048036038101908080359060200190929190505050610ddd565b005b34801561061057600080fd5b5061062f60048036038101908080359060200190929190505050611147565b6040518080602001828103825283818151815260200191508051906020019080838360005b8381101561066f578082015181840152602081019050610654565b50505050905090810190601f16801561069c5780820380516001836020036101000a031916815260200191505b509250505060405180910390f35b3480156106b657600080fd5b5061073b600480360381019080803573ffffffffffffffffffffffffffffffffffffffff16906020019092919080359060200190929190803590602001908201803590602001908080601f0160208091040260200160405190810160405280939291908181526020018383808284378201915050505050509192919290505050611202565b005b34801561074957600080fd5b5061075261129f565b6040518082815260200191505060405180910390f35b600061077261286c565b6060600060408051908101604052808e600060028110151561079057fe5b602002015181526020018e60016002811015156107a957fe5b6020020151815250836000018190525060408051908101604052808d60006002811015156107d357fe5b602002015181526020018d60016002811015156107ec57fe5b60200201518152508360200181905250604080519081016040528060408051908101604052808e600060028110151561082157fe5b6020020151600060028110151561083457fe5b602002015181526020018e600060028110151561084d57fe5b6020020151600160028110151561086057fe5b6020020151815250815260200160408051908101604052808e600160028110151561088757fe5b6020020151600060028110151561089a57fe5b602002015181526020018e60016002811015156108b357fe5b602002015160016002811015156108c657fe5b6020020151815250815250836040018190525060408051908101604052808b60006002811015156108f357fe5b602002015181526020018b600160028110151561090c57fe5b6020020151815250836060018190525060408051908101604052808a600060028110151561093657fe5b602002015181526020018a600160028110151561094f57fe5b60200201518152508360800181905250604080519081016040528089600060028110151561097957fe5b6020020151815260200189600160028110151561099257fe5b60200201518152508360a0018190525060408051908101604052808860006002811015156109bc57fe5b602002015181526020018860016002811015156109d557fe5b60200201518152508360e0018190525060408051908101604052808760006002811015156109ff57fe5b60200201518152602001876001600281101515610a1857fe5b60200201518152508360c001819052506007604051908082528060200260200182016040528015610a585781602001602082028038833980820191505090505b509150600090505b6007811015610aa5578481600781101515610a7757fe5b60200201518282815181101515610a8a57fe5b90602001906020020181815250508080600101915050610a60565b6000610ab183856112ac565b1415610b4e577f3f3cfdb26fb5f9f1786ab4f1a1f9cd4c0b5e726cbdfc26e495261731aad44e396040518080602001828103825260228152602001807f5472616e73616374696f6e207375636365737366756c6c79207665726966696581526020017f642e00000000000000000000000000000000000000000000000000000000000081525060400191505060405180910390a160019350610b53565b600093505b5050509998505050505050505050565b6000806000610b798e8e8e8e8e8e8e8e8e610768565b1515610bed576040517f08c379a00000000000000000000000000000000000000000000000000000000081526004018080602001828103825260108152602001807f496e76616c6964207a6b2070726f6f660000000000000000000000000000000081525060200191505060405180910390fd5b610c1d866000600781101515610bff57fe5b6020020151876001600781101515610c1357fe5b60200201516114e3565b925060016002811115610c2c57fe5b60016000856000191660001916815260200190815260200160002060009054906101000a900460ff166002811115610c6057fe5b141515610cd5576040517f08c379a00000000000000000000000000000000000000000000000000000000081526004018080602001828103825260198152602001807f7370656e64696e674e6f746520646f65736e742065786973740000000000000081525060200191505060405180910390fd5b600260016000856000191660001916815260200190815260200160002060006101000a81548160ff02191690836002811115610d0d57fe5b0217905550610d42866002600781101515610d2457fe5b6020020151876003600781101515610d3857fe5b60200201516114e3565b9150610d4e8286611662565b610d7e866004600781101515610d6057fe5b6020020151876005600781101515610d7457fe5b60200201516114e3565b9050610d8a8185611662565b5050505050505050505050505050565b600381815481101515610da957fe5b906000526020600020016000915090505481565b60016020528060005260406000206000915054906101000a900460ff1681565b600060023373ffffffffffffffffffffffffffffffffffffffff16600102836001026040518083600019166000191681526020018260001916600019168152602001925050506020604051808303816000865af1158015610e42573d6000803e3d6000fd5b5050506040513d6020811015610e5757600080fd5b8101908080519060200190929190505050905060016002811115610e7757fe5b60016000836000191660001916815260200190815260200160002060009054906101000a900460ff166002811115610eab57fe5b141515610f20576040517f08c379a00000000000000000000000000000000000000000000000000000000081526004018080602001828103825260118152602001807f6e6f746520646f65736e7420657869737400000000000000000000000000000081525060200191505060405180910390fd5b600260016000836000191660001916815260200190815260200160002060006101000a81548160ff02191690836002811115610f5857fe5b02179055506000809054906101000a900473ffffffffffffffffffffffffffffffffffffffff1673ffffffffffffffffffffffffffffffffffffffff1663a9059cbb3361271085026040518363ffffffff167c0100000000000000000000000000000000000000000000000000000000028152600401808373ffffffffffffffffffffffffffffffffffffffff1673ffffffffffffffffffffffffffffffffffffffff16815260200182815260200192505050602060405180830381600087803b15801561102557600080fd5b505af1158015611039573d6000803e3d6000fd5b505050506040513d602081101561104f57600080fd5b810190808051906020019092919050505015156110d4576040517f08c379a00000000000000000000000000000000000000000000000000000000081526004018080602001828103825260188152602001807f686d79546f6b656e207472616e73666572206661696c6564000000000000000081525060200191505060405180910390fd5b7f47cee97cb7acd717b3c0aa1435d004cd5b3c8c57d70dbceb4e4458bbd60e39d4336127108402604051808373ffffffffffffffffffffffffffffffffffffffff1673ffffffffffffffffffffffffffffffffffffffff1681526020018281526020019250505060405180910390a15050565b60028181548110151561115657fe5b906000526020600020016000915090508054600181600116156101000203166002900480601f0160208091040260200160405190810160405280929190818152602001828054600181600116156101000203166002900480156111fa5780601f106111cf576101008083540402835291602001916111fa565b820191906000526020600020905b8154815290600101906020018083116111dd57829003601f168201915b505050505081565b600060028473ffffffffffffffffffffffffffffffffffffffff16600102846001026040518083600019166000191681526020018260001916600019168152602001925050506020604051808303816000865af1158015611267573d6000803e3d6000fd5b5050506040513d602081101561127c57600080fd5b810190808051906020019092919050505090506112998183611662565b50505050565b6000600280549050905090565b60006112b66128e2565b6112be612952565b60006112c8611762565b92508260e001515160018751011415156112e157600080fd5b60408051908101604052806000815260200160008152509150600090505b855181101561135f576113508261134b8560e001516001850181518110151561132457fe5b90602001906020020151898581518110151561133c57fe5b90602001906020020151611feb565b612087565b915080806001019150506112ff565b611385828460e00151600081518110151561137657fe5b90602001906020020151612087565b91506113ae856000015184600001516113a18860200151612144565b6113a96121df565b6122a9565b15156113bd57600193506114da565b6113e4836020015186604001516113d78860600151612144565b6113df6121df565b6122a9565b15156113f357600293506114da565b61141a8560800151846040015161140d8860a00151612144565b6114156121df565b6122a9565b151561142957600393506114da565b6114758560c0015184606001516114596114548661144f8b600001518c60800151612087565b612087565b612144565b8660a0015161146b8860800151612144565b8a604001516123b4565b151561148457600493506114da565b6114c6611495838760000151612087565b86604001516114a78860e00151612144565b8660c001516114b98a60800151612144565b6114c16121df565b6123b4565b15156114d557600593506114da565b600093505b50505092915050565b600080600060606000867001000000000000000000000000000000000293508570010000000000000000000000000000000002925060206040519080825280601f01601f19166020018201604052801561154c5781602001602082028038833980820191505090505b509150600090505b601081101561164b57838160108110151561156b57fe5b1a7f010000000000000000000000000000000000000000000000000000000000000002828281518110151561159c57fe5b9060200101907effffffffffffffffffffffffffffffffffffffffffffffffffffffffffffff1916908160001a90535082816010811015156115da57fe5b1a7f010000000000000000000000000000000000000000000000000000000000000002828260100181518110151561160e57fe5b9060200101907effffffffffffffffffffffffffffffffffffffffffffffffffffffffffffff1916908160001a9053508080600101915050611554565b6116568260006124fb565b94505050505092915050565b6001806000846000191660001916815260200190815260200160002060006101000a81548160ff0219169083600281111561169957fe5b021790555060028190806001815401808255809150509060018203906000526020600020016000909192909190915090805190602001906116db92919061296c565b505060038290806001815401808255809150509060018203906000526020600020016000909192909190915090600019169055507fc904a92388c152c0c63dfe30e3e880273673ef7d33ea18195aecb5ba50f546fc826001600280549050036040518083600019166000191681526020018281526020019250505060405180910390a15050565b61176a6128e2565b604080519081016040528060408051908101604052807f211bf9317e74e79ad62a3d5beae262e75f8d8f960452444e9bf360c38cdc699181526020017f0cf880da403ebc01b99dc5f8b778d24973ac2a9bb5e90323b0e72451c0db2a36815250815260200160408051908101604052807f0caf4733df03c203b6b928e80cb25e0e87b9a7b79d5796f38e720763d052b69381526020017f18da286bf41519ea66e82d62b848fff227cf0ae332be96bdb6759f30e12cf2c5815250815250816000018190525060408051908101604052807f21cd5a194e6d8afcee2ed00ca5e9f3cbe0ec111d9a93111fcc6b819e61a0a89f81526020017f21a73b4831138c737f165bf2cec677778ac5feeac162541c6cd28ad2444782168152508160200181905250604080519081016040528060408051908101604052807f176b0c92808081b9dd1c43318da3ed30575ad5ed1847057da21345988e29cd0781526020017f042b89d99fd48411e523b5b5e4bc292fdfb72cece32add0d6d40fbe2739c87ab815250815260200160408051908101604052807f159ded2ec49e7cf37438a6197ac1b31a0ca6d3f6bb97c6d5fcfbf80f39b34bb581526020017f0bbfe5495b2a8fe89cce7cbc4179e622cf59fb77160abd90470c3db0ee6e4ec18152508152508160400181905250604080519081016040528060408051908101604052807f2c10339c9bd2589ad352ffc56960d0088533d9460b2e58a1a0d0447201bc82ac81526020017f03e8054dcb5110b7751c92b2b8211fda96a9d3743410688a56186ecb9ec6a927815250815260200160408051908101604052807f1a7a3e5446993e1239822b784925abeb0f2917603ceadaaef726cc884d1ef83c81526020017f2019aa29ee440c79c642e658de0ccbfb69040d130abe706b199f157f0847099d815250815250816060018190525060408051908101604052807f1e2844d50b5aa503c28a9513bc92f1e1c110ab8979a6f8ab9a02f301e6e383a881526020017f27089393326ee6f4b7c41828a280d65732b551b2acbb7a710fd6d4f5ef79484a8152508160800181905250604080519081016040528060408051908101604052807f1b353908a97451721d97c41ee0e2b36433cb9113bddcab8658563af3f923068981526020017f1f5d1fe3dc6137398d9ef7827308aec725b07e9d5d741fda3a64750b0aee1a0e815250815260200160408051908101604052807f2bf9f155287a9af32d90506865df71441230934c5e49ad851d71f0e56388857681526020017f1f5f8ef8e6c737fb5fdd6a852f39f2ecd1682b71912583de290608e4d1137e458152508152508160a00181905250604080519081016040528060408051908101604052807f1d70c6debfaeb764f19561d36483b91b606de5065c2ab5d3bdce73fcfbc6b2cc81526020017f2213091d7e39a24b8e7118dc7b4e3d2c75e4ca24782909c561c5d5290a8aacbd815250815260200160408051908101604052807f0ef45e56c26dee24da3721c529f8e8e507f37ad3db1f6b10efae4f244a5d066c81526020017f014155c6d6c69d3bd0885d48c708722328e2796cff888758666057a4a6d0189e8152508152508160c001819052506008604051908082528060200260200182016040528015611c3857816020015b611c256129ec565b815260200190600190039081611c1d5790505b508160e0018190525060408051908101604052807f02e6b930fee71d4d772485ff3258867fac640047318b171da5204346bd8f36cc81526020017f109817eca116a60294b8fcf4d7f25a625206e978bdd12e42d2745894dbd2be288152508160e001516000815181101515611ca957fe5b9060200190602002018190525060408051908101604052807f03b70491d5c8fc62407153824ac9f24b770930b5d0c294539866c4a0d907eb5f81526020017e4668f863d1da48ef0eda5123179acd19d237aa72f10d3781140676bf97cbbb8152508160e001516001815181101515611d1d57fe5b9060200190602002018190525060408051908101604052807f16cab7b7c3c7838867640823d77a4dd068391f185202593deb094fcc674ca69c81526020017f0ecb740bfaf7f2779166051d1a423ed0cf8918920845f928414a4989e7b5fb848152508160e001516002815181101515611d9257fe5b9060200190602002018190525060408051908101604052807f2f02c7c55829351e9a63deabea66f5a918ed04731ba8b92447873015ef5395d981526020017f0d66a660867aea4dddf25832799cad1bde8cd80560d8680992c544621d5fe4018152508160e001516003815181101515611e0757fe5b9060200190602002018190525060408051908101604052807f1de9aa8e94362f23791e78a798c80b48bb87704f59c2b2d80b9c8a4304daf38c81526020017f2be53db8238ec585e48c2628381526b73af1047ff674ad374b8bcde76d73783b8152508160e001516004815181101515611e7c57fe5b9060200190602002018190525060408051908101604052807f102bf0cd7fd64d75f2b8ae6e8cbabede5107478271f2551db2904597d21ae6a581526020017f23503ed4dc9c158ae88fd0ed36e6e01f96eb97b71a85364d7d3f340dc2b779fd8152508160e001516005815181101515611ef157fe5b9060200190602002018190525060408051908101604052807f1b89d4c85bf533bb472226de912e6ea2251e69a77194c860ab53032dd033aa0981526020017f2dd8643cd3395e3ad947d05fce119def670385ad1eef6dac4679dedf85d53f948152508160e001516006815181101515611f6657fe5b9060200190602002018190525060408051908101604052807f0a13f451de99f85f721907cb08ca14d2233130780d1defa5c2bad3b77f0fad2381526020017f2893b56b7bbd351aa1f857cb66733e611a5ff610a694baf0cce57aea2fda55dc8152508160e001516007815181101515611fdb57fe5b9060200190602002018190525090565b611ff3612952565b611ffb612a06565b6000846000015182600060038110151561201157fe5b602002018181525050846020015182600160038110151561202e57fe5b6020020181815250508382600260038110151561204757fe5b602002018181525050606083608084600060076107d05a03f19050806000811461207057612072565bfe5b5080151561207f57600080fd5b505092915050565b61208f612952565b612097612a29565b600084600001518260006004811015156120ad57fe5b60200201818152505084602001518260016004811015156120ca57fe5b60200201818152505083600001518260026004811015156120e757fe5b602002018181525050836020015182600360048110151561210457fe5b60200201818152505060608360c084600060066107d05a03f19050806000811461212d5761212f565bfe5b5080151561213c57600080fd5b505092915050565b61214c612952565b60007f30644e72e131a029b85045b68181585d97816a916871ca8d3c208c16d87cfd47905060008360000151148015612189575060008360200151145b156121ac57604080519081016040528060008152602001600081525091506121d9565b6040805190810160405280846000015181526020018285602001518115156121d057fe5b06830381525091505b50919050565b6121e7612a4c565b604080519081016040528060408051908101604052807f198e9393920d483a7260bfb731fb5d25f1aa493335a9e71297e485b7aef312c281526020017f1800deef121f1e76426a00665e5c4479674322d4f75edadd46debd5cd992f6ed815250815260200160408051908101604052807f090689d0585ff075ec9e99ad690c3395bc4b313370b38ef355acdadcd122975b81526020017f12c85ea5db8c6deb4aab71808dcb408fe3d1e7690c43d37b4ce6cc0166fa7daa815250815250905090565b600060608060026040519080825280602002602001820160405280156122e957816020015b6122d66129ec565b8152602001906001900390816122ce5790505b509150600260405190808252806020026020018201604052801561232757816020015b612314612a73565b81526020019060019003908161230c5790505b5090508682600081518110151561233a57fe5b906020019060200201819052508482600181518110151561235757fe5b906020019060200201819052508581600081518110151561237457fe5b906020019060200201819052508381600181518110151561239157fe5b906020019060200201819052506123a882826125d9565b92505050949350505050565b600060608060036040519080825280602002602001820160405280156123f457816020015b6123e16129ec565b8152602001906001900390816123d95790505b509150600360405190808252806020026020018201604052801561243257816020015b61241f612a73565b8152602001906001900390816124175790505b5090508882600081518110151561244557fe5b906020019060200201819052508682600181518110151561246257fe5b906020019060200201819052508482600281518110151561247f57fe5b906020019060200201819052508781600081518110151561249c57fe5b90602001906020020181905250858160018151811015156124b957fe5b90602001906020020181905250838160028151811015156124d657fe5b906020019060200201819052506124ed82826125d9565b925050509695505050505050565b60008060008090505b60208110156125ce576008810260ff7f0100000000000000000000000000000000000000000000000000000000000000028683870181518110151561254557fe5b9060200101517f010000000000000000000000000000000000000000000000000000000000000090047f010000000000000000000000000000000000000000000000000000000000000002167effffffffffffffffffffffffffffffffffffffffffffffffffffffffffffff1916600019169060020a9004821791508080600101915050612504565b819250505092915050565b6000806000606060006125ea612a9a565b6000875189511415156125fc57600080fd5b88519550600686029450846040519080825280602002602001820160405280156126355781602001602082028038833980820191505090505b509350600092505b8583101561281257888381518110151561265357fe5b9060200190602002015160000151846000600686020181518110151561267557fe5b9060200190602002018181525050888381518110151561269157fe5b906020019060200201516020015184600160068602018151811015156126b357fe5b906020019060200201818152505087838151811015156126cf57fe5b906020019060200201516000015160006002811015156126eb57fe5b6020020151846002600686020181518110151561270457fe5b9060200190602002018181525050878381518110151561272057fe5b9060200190602002015160000151600160028110151561273c57fe5b6020020151846003600686020181518110151561275557fe5b9060200190602002018181525050878381518110151561277157fe5b9060200190602002015160200151600060028110151561278d57fe5b602002015184600460068602018151811015156127a657fe5b906020019060200201818152505087838151811015156127c257fe5b906020019060200201516020015160016002811015156127de57fe5b602002015184600560068602018151811015156127f757fe5b9060200190602002018181525050828060010193505061263d565b6020826020870260208701600060086107d05a03f19050806000811461283757612839565bfe5b5080151561284657600080fd5b600082600060018110151561285757fe5b60200201511415965050505050505092915050565b610240604051908101604052806128816129ec565b815260200161288e6129ec565b815260200161289b612a73565b81526020016128a86129ec565b81526020016128b56129ec565b81526020016128c26129ec565b81526020016128cf6129ec565b81526020016128dc6129ec565b81525090565b610320604051908101604052806128f7612a73565b81526020016129046129ec565b8152602001612911612a73565b815260200161291e612a73565b815260200161292b6129ec565b8152602001612938612a73565b8152602001612945612a73565b8152602001606081525090565b604080519081016040528060008152602001600081525090565b828054600181600116156101000203166002900490600052602060002090601f016020900481019282601f106129ad57805160ff19168380011785556129db565b828001600101855582156129db579182015b828111156129da5782518255916020019190600101906129bf565b5b5090506129e89190612abd565b5090565b604080519081016040528060008152602001600081525090565b606060405190810160405280600390602082028038833980820191505090505090565b608060405190810160405280600490602082028038833980820191505090505090565b608060405190810160405280612a60612ae2565b8152602001612a6d612ae2565b81525090565b608060405190810160405280612a87612ae2565b8152602001612a94612ae2565b81525090565b602060405190810160405280600190602082028038833980820191505090505090565b612adf91905b80821115612adb576000816000905550600101612ac3565b5090565b90565b60408051908101604052806002906020820280388339808201915050905050905600a165627a7a72305820f69514709878f563bcf9a662a7fa43d75a5f6c03f8101363e2fab93f238047de0029",
  "source": "pragma solidity ^0.4.25;\n\nimport \"./ERC20Interface.sol\";\nimport \"./verifier.sol\";\n\ncontract SecretNote is Verifier {\n\n  ERC20 internal HMY_TOKEN_ADDRESS = ERC20(0x4029D1FF3a5485CB12a0Ed891DDde81De8A6F8D4);\n\n  constructor() {}\n\n  enum State {Invalid, Created, Spent}\n  mapping(bytes32 => State) public notes; // mapping of hash of the note to state\n  string[] public allNotes;\n  bytes32[] public allHashedNotes;\n\n  function createNote(address owner, uint amount, string encryptedNote) public {\n    bytes32 note = sha256(bytes32(owner), bytes32(amount));\n    createNote(note, encryptedNote);\n  }\n\n  function claimNote(uint amount) public {\n    bytes32 note = sha256(bytes32(msg.sender), bytes32(amount));\n    require(\n      notes[note] == State.Created,\n      'note doesnt exist'\n    );\n    notes[note] = State.Spent;\n    require(\n      HMY_TOKEN_ADDRESS.transfer(msg.sender, amount * (10 ** 4)),\n      'hmyToken transfer failed'\n    );\n    emit Claim(msg.sender, amount * (10 ** 4));\n  }\n  event Claim(address to, uint amount);\n\n  function transferNote(\n    uint[2] a,\n    uint[2] a_p,\n    uint[2][2] b,\n    uint[2] b_p,\n    uint[2] c,\n    uint[2] c_p,\n    uint[2] h,\n    uint[2] k,\n    uint[7] input,\n    string encryptedNote1,\n    string encryptedNote2\n  ) {\n    require(\n      verifyTx(a, a_p, b, b_p, c, c_p, h, k, input),\n      'Invalid zk proof'\n    );\n\n    bytes32 spendingNote = calcNoteHash(input[0], input[1]);\n    require(\n      notes[spendingNote] == State.Created,\n      'spendingNote doesnt exist'\n    );\n\n    notes[spendingNote] = State.Spent;\n    bytes32 newNote1 = calcNoteHash(input[2], input[3]);\n    createNote(newNote1, encryptedNote1);\n    bytes32 newNote2 = calcNoteHash(input[4], input[5]);\n    createNote(newNote2, encryptedNote2);\n  }\n\n  function getNotesLength() public view returns(uint) {\n    return allNotes.length;\n  }\n\n  event NoteCreated(bytes32 noteId, uint index);\n  function createNote(bytes32 note, string encryptedNote) internal {\n    notes[note] = State.Created;\n    allNotes.push(encryptedNote);\n    allHashedNotes.push(note);\n    emit NoteCreated(note, allNotes.length - 1);\n  }\n\n  function calcNoteHash(uint _a, uint _b) internal returns(bytes32 note) {\n    bytes16 a = bytes16(_a);\n    bytes16 b = bytes16(_b);\n    bytes memory _note = new bytes(32);\n    \n    for (uint i = 0; i < 16; i++) {\n      _note[i] = a[i];\n      _note[16 + i] = b[i];\n    }\n    note = bytesToBytes32(_note, 0);\n  }\n\n  function bytesToBytes32(bytes b, uint offset) internal pure returns (bytes32) {\n    bytes32 out;\n    for (uint i = 0; i < 32; i++) {\n      out |= bytes32(b[offset + i] & 0xFF) >> (i * 8);\n    }\n    return out;\n  }\n}\n",
  "sourcePath": "/Users/chao/harmony/zk-dai/ethereum/contracts/SecretNote.sol",
  "compiler": {
    "name": "solc",
    "version": "0.4.26+commit.4563c3fc.Emscripten.clang"
  },
  "schemaVersion": "3.0.6",
  "updatedAt": "2019-04-29T22:29:16.122Z",
  "devdoc": {
    "methods": {}
  },
  "userdoc": {
    "methods": {}
  }
}